{
  "contractName": "Audio",
  "abi": [
    {
      "inputs": [],
      "stateMutability": "nonpayable",
      "type": "constructor"
    },
    {
      "anonymous": false,
      "inputs": [
        {
          "indexed": true,
          "internalType": "address",
          "name": "owner",
          "type": "address"
        },
        {
          "indexed": true,
          "internalType": "address",
          "name": "approved",
          "type": "address"
        },
        {
          "indexed": true,
          "internalType": "uint256",
          "name": "tokenId",
          "type": "uint256"
        }
      ],
      "name": "Approval",
      "type": "event"
    },
    {
      "anonymous": false,
      "inputs": [
        {
          "indexed": true,
          "internalType": "address",
          "name": "owner",
          "type": "address"
        },
        {
          "indexed": true,
          "internalType": "address",
          "name": "operator",
          "type": "address"
        },
        {
          "indexed": false,
          "internalType": "bool",
          "name": "approved",
          "type": "bool"
        }
      ],
      "name": "ApprovalForAll",
      "type": "event"
    },
    {
      "anonymous": false,
      "inputs": [
        {
          "indexed": true,
          "internalType": "address",
          "name": "previousOwner",
          "type": "address"
        },
        {
          "indexed": true,
          "internalType": "address",
          "name": "newOwner",
          "type": "address"
        }
      ],
      "name": "OwnershipTransferred",
      "type": "event"
    },
    {
      "anonymous": false,
      "inputs": [
        {
          "indexed": true,
          "internalType": "address",
          "name": "from",
          "type": "address"
        },
        {
          "indexed": true,
          "internalType": "address",
          "name": "to",
          "type": "address"
        },
        {
          "indexed": true,
          "internalType": "uint256",
          "name": "tokenId",
          "type": "uint256"
        }
      ],
      "name": "Transfer",
      "type": "event"
    },
    {
      "inputs": [
        {
          "internalType": "address",
          "name": "to",
          "type": "address"
        },
        {
          "internalType": "uint256",
          "name": "tokenId",
          "type": "uint256"
        }
      ],
      "name": "approve",
      "outputs": [],
      "stateMutability": "nonpayable",
      "type": "function"
    },
    {
      "inputs": [
        {
          "internalType": "address",
          "name": "owner",
          "type": "address"
        }
      ],
      "name": "balanceOf",
      "outputs": [
        {
          "internalType": "uint256",
          "name": "",
          "type": "uint256"
        }
      ],
      "stateMutability": "view",
      "type": "function",
      "constant": true
    },
    {
      "inputs": [
        {
          "internalType": "uint256",
          "name": "tokenId",
          "type": "uint256"
        }
      ],
      "name": "getApproved",
      "outputs": [
        {
          "internalType": "address",
          "name": "",
          "type": "address"
        }
      ],
      "stateMutability": "view",
      "type": "function",
      "constant": true
    },
    {
      "inputs": [
        {
          "internalType": "address",
          "name": "owner",
          "type": "address"
        },
        {
          "internalType": "address",
          "name": "operator",
          "type": "address"
        }
      ],
      "name": "isApprovedForAll",
      "outputs": [
        {
          "internalType": "bool",
          "name": "",
          "type": "bool"
        }
      ],
      "stateMutability": "view",
      "type": "function",
      "constant": true
    },
    {
      "inputs": [],
      "name": "name",
      "outputs": [
        {
          "internalType": "string",
          "name": "",
          "type": "string"
        }
      ],
      "stateMutability": "view",
      "type": "function",
      "constant": true
    },
    {
      "inputs": [],
      "name": "owner",
      "outputs": [
        {
          "internalType": "address",
          "name": "",
          "type": "address"
        }
      ],
      "stateMutability": "view",
      "type": "function",
      "constant": true
    },
    {
      "inputs": [
        {
          "internalType": "uint256",
          "name": "tokenId",
          "type": "uint256"
        }
      ],
      "name": "ownerOf",
      "outputs": [
        {
          "internalType": "address",
          "name": "",
          "type": "address"
        }
      ],
      "stateMutability": "view",
      "type": "function",
      "constant": true
    },
    {
      "inputs": [],
      "name": "renounceOwnership",
      "outputs": [],
      "stateMutability": "nonpayable",
      "type": "function"
    },
    {
      "inputs": [
        {
          "internalType": "address",
          "name": "from",
          "type": "address"
        },
        {
          "internalType": "address",
          "name": "to",
          "type": "address"
        },
        {
          "internalType": "uint256",
          "name": "tokenId",
          "type": "uint256"
        }
      ],
      "name": "safeTransferFrom",
      "outputs": [],
      "stateMutability": "nonpayable",
      "type": "function"
    },
    {
      "inputs": [
        {
          "internalType": "address",
          "name": "from",
          "type": "address"
        },
        {
          "internalType": "address",
          "name": "to",
          "type": "address"
        },
        {
          "internalType": "uint256",
          "name": "tokenId",
          "type": "uint256"
        },
        {
          "internalType": "bytes",
          "name": "_data",
          "type": "bytes"
        }
      ],
      "name": "safeTransferFrom",
      "outputs": [],
      "stateMutability": "nonpayable",
      "type": "function"
    },
    {
      "inputs": [
        {
          "internalType": "address",
          "name": "operator",
          "type": "address"
        },
        {
          "internalType": "bool",
          "name": "approved",
          "type": "bool"
        }
      ],
      "name": "setApprovalForAll",
      "outputs": [],
      "stateMutability": "nonpayable",
      "type": "function"
    },
    {
      "inputs": [
        {
          "internalType": "bytes4",
          "name": "interfaceId",
          "type": "bytes4"
        }
      ],
      "name": "supportsInterface",
      "outputs": [
        {
          "internalType": "bool",
          "name": "",
          "type": "bool"
        }
      ],
      "stateMutability": "view",
      "type": "function",
      "constant": true
    },
    {
      "inputs": [],
      "name": "symbol",
      "outputs": [
        {
          "internalType": "string",
          "name": "",
          "type": "string"
        }
      ],
      "stateMutability": "view",
      "type": "function",
      "constant": true
    },
    {
      "inputs": [
        {
          "internalType": "uint256",
          "name": "tokenId",
          "type": "uint256"
        }
      ],
      "name": "tokenURI",
      "outputs": [
        {
          "internalType": "string",
          "name": "",
          "type": "string"
        }
      ],
      "stateMutability": "view",
      "type": "function",
      "constant": true
    },
    {
      "inputs": [
        {
          "internalType": "address",
          "name": "from",
          "type": "address"
        },
        {
          "internalType": "address",
          "name": "to",
          "type": "address"
        },
        {
          "internalType": "uint256",
          "name": "tokenId",
          "type": "uint256"
        }
      ],
      "name": "transferFrom",
      "outputs": [],
      "stateMutability": "nonpayable",
      "type": "function"
    },
    {
      "inputs": [
        {
          "internalType": "address",
          "name": "newOwner",
          "type": "address"
        }
      ],
      "name": "transferOwnership",
      "outputs": [],
      "stateMutability": "nonpayable",
      "type": "function"
    },
    {
      "inputs": [
        {
          "internalType": "string",
          "name": "baseURI",
          "type": "string"
        }
      ],
      "name": "setBaseURI",
      "outputs": [],
      "stateMutability": "nonpayable",
      "type": "function"
    },
    {
      "inputs": [
        {
          "internalType": "string",
          "name": "title",
          "type": "string"
        },
        {
          "internalType": "string",
          "name": "composer",
          "type": "string"
        },
        {
          "internalType": "string",
          "name": "genre",
          "type": "string"
        },
        {
          "internalType": "string",
          "name": "url",
          "type": "string"
        }
      ],
      "name": "claim",
      "outputs": [],
      "stateMutability": "payable",
      "type": "function",
      "payable": true
    },
    {
      "inputs": [
        {
          "internalType": "uint256",
          "name": "tokenId",
          "type": "uint256"
        }
      ],
      "name": "get",
      "outputs": [
        {
          "internalType": "string",
          "name": "title",
          "type": "string"
        },
        {
          "internalType": "string",
          "name": "composer",
          "type": "string"
        },
        {
          "internalType": "string",
          "name": "genre",
          "type": "string"
        },
        {
          "internalType": "string",
          "name": "url",
          "type": "string"
        }
      ],
      "stateMutability": "view",
      "type": "function",
      "constant": true
    }
  ],
  "bytecode": "0x60806040523480156200001157600080fd5b506040518060400160405280600581526020017f417564696f0000000000000000000000000000000000000000000000000000008152506040518060400160405280600581526020017f415544494f0000000000000000000000000000000000000000000000000000008152506200009e62000092620001ea60201b60201c565b620001f260201b60201c565b8160019080519060200190620000b692919062000954565b508060029080519060200190620000cf92919062000954565b505050620001186040518060400160405280601781526020017f687474703a2f2f6c6f63616c686f73742f746f6b656e2f000000000000000000815250620002b660201b60201c565b620001e46040518060400160405280600981526020017f546573742066696c6500000000000000000000000000000000000000000000008152506040518060400160405280600781526020017f41626869677961000000000000000000000000000000000000000000000000008152506040518060400160405280600481526020017f74657374000000000000000000000000000000000000000000000000000000008152506040518060a001604052806076815260200162004449607691396200036160201b60201c565b62000ee0565b600033905090565b60008060009054906101000a900473ffffffffffffffffffffffffffffffffffffffff169050816000806101000a81548173ffffffffffffffffffffffffffffffffffffffff021916908373ffffffffffffffffffffffffffffffffffffffff1602179055508173ffffffffffffffffffffffffffffffffffffffff168173ffffffffffffffffffffffffffffffffffffffff167f8be0079c531659141344cd1fd0a4f28419497f9722a3daafe3b4186f6b6457e060405160405180910390a35050565b620002c6620001ea60201b60201c565b73ffffffffffffffffffffffffffffffffffffffff16620002ec6200045f60201b60201c565b73ffffffffffffffffffffffffffffffffffffffff161462000345576040517f08c379a00000000000000000000000000000000000000000000000000000000081526004016200033c9062000a65565b60405180910390fd5b80600990805190602001906200035d92919062000954565b5050565b6200037860076200048860201b620011a51760201c565b60006200039160076200049e60201b620011bb1760201c565b9050604051806080016040528086815260200185815260200184815260200183815250600860008381526020019081526020016000206000820151816000019080519060200190620003e592919062000954565b5060208201518160010190805190602001906200040492919062000954565b5060408201518160020190805190602001906200042392919062000954565b5060608201518160030190805190602001906200044292919062000954565b50905050620004583382620004ac60201b60201c565b5050505050565b60008060009054906101000a900473ffffffffffffffffffffffffffffffffffffffff16905090565b6001816000016000828254019250508190555050565b600081600001549050919050565b620004ce828260405180602001604052806000815250620004d260201b60201c565b5050565b620004e483836200054060201b60201c565b620004f960008484846200072660201b60201c565b6200053b576040517f08c379a0000000000000000000000000000000000000000000000000000000008152600401620005329062000afd565b60405180910390fd5b505050565b600073ffffffffffffffffffffffffffffffffffffffff168273ffffffffffffffffffffffffffffffffffffffff161415620005b3576040517f08c379a0000000000000000000000000000000000000000000000000000000008152600401620005aa9062000b6f565b60405180910390fd5b620005c481620008d060201b60201c565b1562000607576040517f08c379a0000000000000000000000000000000000000000000000000000000008152600401620005fe9062000be1565b60405180910390fd5b6200061b600083836200093c60201b60201c565b6001600460008473ffffffffffffffffffffffffffffffffffffffff1673ffffffffffffffffffffffffffffffffffffffff16815260200190815260200160002060008282546200066d919062000c3c565b92505081905550816003600083815260200190815260200160002060006101000a81548173ffffffffffffffffffffffffffffffffffffffff021916908373ffffffffffffffffffffffffffffffffffffffff160217905550808273ffffffffffffffffffffffffffffffffffffffff16600073ffffffffffffffffffffffffffffffffffffffff167fddf252ad1be2c89b69c2b068fc378daa952ba7f163c4a11628f55a4df523b3ef60405160405180910390a45050565b6000620007548473ffffffffffffffffffffffffffffffffffffffff166200094160201b620011c91760201c565b15620008c3578373ffffffffffffffffffffffffffffffffffffffff1663150b7a0262000786620001ea60201b60201c565b8786866040518563ffffffff1660e01b8152600401620007aa949392919062000d93565b6020604051808303816000875af1925050508015620007e957506040513d601f19601f82011682018060405250810190620007e6919062000e49565b60015b62000872573d80600081146200081c576040519150601f19603f3d011682016040523d82523d6000602084013e62000821565b606091505b506000815114156200086a576040517f08c379a0000000000000000000000000000000000000000000000000000000008152600401620008619062000afd565b60405180910390fd5b805181602001fd5b63150b7a0260e01b7bffffffffffffffffffffffffffffffffffffffffffffffffffffffff1916817bffffffffffffffffffffffffffffffffffffffffffffffffffffffff191614915050620008c8565b600190505b949350505050565b60008073ffffffffffffffffffffffffffffffffffffffff166003600084815260200190815260200160002060009054906101000a900473ffffffffffffffffffffffffffffffffffffffff1673ffffffffffffffffffffffffffffffffffffffff1614159050919050565b505050565b600080823b905060008111915050919050565b828054620009629062000eaa565b90600052602060002090601f016020900481019282620009865760008555620009d2565b82601f10620009a157805160ff1916838001178555620009d2565b82800160010185558215620009d2579182015b82811115620009d1578251825591602001919060010190620009b4565b5b509050620009e19190620009e5565b5090565b5b8082111562000a00576000816000905550600101620009e6565b5090565b600082825260208201905092915050565b7f4f776e61626c653a2063616c6c6572206973206e6f7420746865206f776e6572600082015250565b600062000a4d60208362000a04565b915062000a5a8262000a15565b602082019050919050565b6000602082019050818103600083015262000a808162000a3e565b9050919050565b7f4552433732313a207472616e7366657220746f206e6f6e20455243373231526560008201527f63656976657220696d706c656d656e7465720000000000000000000000000000602082015250565b600062000ae560328362000a04565b915062000af28262000a87565b604082019050919050565b6000602082019050818103600083015262000b188162000ad6565b9050919050565b7f4552433732313a206d696e7420746f20746865207a65726f2061646472657373600082015250565b600062000b5760208362000a04565b915062000b648262000b1f565b602082019050919050565b6000602082019050818103600083015262000b8a8162000b48565b9050919050565b7f4552433732313a20746f6b656e20616c7265616479206d696e74656400000000600082015250565b600062000bc9601c8362000a04565b915062000bd68262000b91565b602082019050919050565b6000602082019050818103600083015262000bfc8162000bba565b9050919050565b6000819050919050565b7f4e487b7100000000000000000000000000000000000000000000000000000000600052601160045260246000fd5b600062000c498262000c03565b915062000c568362000c03565b9250827fffffffffffffffffffffffffffffffffffffffffffffffffffffffffffffffff0382111562000c8e5762000c8d62000c0d565b5b828201905092915050565b600073ffffffffffffffffffffffffffffffffffffffff82169050919050565b600062000cc68262000c99565b9050919050565b62000cd88162000cb9565b82525050565b62000ce98162000c03565b82525050565b600081519050919050565b600082825260208201905092915050565b60005b8381101562000d2b57808201518184015260208101905062000d0e565b8381111562000d3b576000848401525b50505050565b6000601f19601f8301169050919050565b600062000d5f8262000cef565b62000d6b818562000cfa565b935062000d7d81856020860162000d0b565b62000d888162000d41565b840191505092915050565b600060808201905062000daa600083018762000ccd565b62000db9602083018662000ccd565b62000dc8604083018562000cde565b818103606083015262000ddc818462000d52565b905095945050505050565b600080fd5b60007fffffffff0000000000000000000000000000000000000000000000000000000082169050919050565b62000e238162000dec565b811462000e2f57600080fd5b50565b60008151905062000e438162000e18565b92915050565b60006020828403121562000e625762000e6162000de7565b5b600062000e728482850162000e32565b91505092915050565b7f4e487b7100000000000000000000000000000000000000000000000000000000600052602260045260246000fd5b6000600282049050600182168062000ec357607f821691505b6020821081141562000eda5762000ed962000e7b565b5b50919050565b6135598062000ef06000396000f3fe6080604052600436106101145760003560e01c806370a08231116100a0578063a22cb46511610064578063a22cb465146103a5578063b88d4fde146103ce578063c87b56dd146103f7578063e985e9c514610434578063f2fde38b1461047157610114565b806370a08231146102bb578063715018a6146102f85780638da5cb5b1461030f5780639507d39a1461033a57806395d89b411461037a57610114565b806323b872dd116100e757806323b872dd146101e75780632d432e6c1461021057806342842e0e1461022c57806355f804b3146102555780636352211e1461027e57610114565b806301ffc9a71461011957806306fdde0314610156578063081812fc14610181578063095ea7b3146101be575b600080fd5b34801561012557600080fd5b50610140600480360381019061013b91906120e4565b61049a565b60405161014d919061212c565b60405180910390f35b34801561016257600080fd5b5061016b61057c565b60405161017891906121e0565b60405180910390f35b34801561018d57600080fd5b506101a860048036038101906101a39190612238565b61060e565b6040516101b591906122a6565b60405180910390f35b3480156101ca57600080fd5b506101e560048036038101906101e091906122ed565b610693565b005b3480156101f357600080fd5b5061020e6004803603810190610209919061232d565b6107ab565b005b61022a600480360381019061022591906124b5565b61080b565b005b34801561023857600080fd5b50610253600480360381019061024e919061232d565b6108bb565b005b34801561026157600080fd5b5061027c6004803603810190610277919061258c565b6108db565b005b34801561028a57600080fd5b506102a560048036038101906102a09190612238565b610971565b6040516102b291906122a6565b60405180910390f35b3480156102c757600080fd5b506102e260048036038101906102dd91906125d5565b610a23565b6040516102ef9190612611565b60405180910390f35b34801561030457600080fd5b5061030d610adb565b005b34801561031b57600080fd5b50610324610b63565b60405161033191906122a6565b60405180910390f35b34801561034657600080fd5b50610361600480360381019061035c9190612238565b610b8c565b604051610371949392919061262c565b60405180910390f35b34801561038657600080fd5b5061038f610e68565b60405161039c91906121e0565b60405180910390f35b3480156103b157600080fd5b506103cc60048036038101906103c791906126b9565b610efa565b005b3480156103da57600080fd5b506103f560048036038101906103f0919061279a565b610f10565b005b34801561040357600080fd5b5061041e60048036038101906104199190612238565b610f72565b60405161042b91906121e0565b60405180910390f35b34801561044057600080fd5b5061045b6004803603810190610456919061281d565b611019565b604051610468919061212c565b60405180910390f35b34801561047d57600080fd5b50610498600480360381019061049391906125d5565b6110ad565b005b60007f80ac58cd000000000000000000000000000000000000000000000000000000007bffffffffffffffffffffffffffffffffffffffffffffffffffffffff1916827bffffffffffffffffffffffffffffffffffffffffffffffffffffffff1916148061056557507f5b5e139f000000000000000000000000000000000000000000000000000000007bffffffffffffffffffffffffffffffffffffffffffffffffffffffff1916827bffffffffffffffffffffffffffffffffffffffffffffffffffffffff1916145b806105755750610574826111dc565b5b9050919050565b60606001805461058b9061288c565b80601f01602080910402602001604051908101604052809291908181526020018280546105b79061288c565b80156106045780601f106105d957610100808354040283529160200191610604565b820191906000526020600020905b8154815290600101906020018083116105e757829003601f168201915b5050505050905090565b600061061982611246565b610658576040517f08c379a000000000000000000000000000000000000000000000000000000000815260040161064f90612930565b60405180910390fd5b6005600083815260200190815260200160002060009054906101000a900473ffffffffffffffffffffffffffffffffffffffff169050919050565b600061069e82610971565b90508073ffffffffffffffffffffffffffffffffffffffff168373ffffffffffffffffffffffffffffffffffffffff16141561070f576040517f08c379a0000000000000000000000000000000000000000000000000000000008152600401610706906129c2565b60405180910390fd5b8073ffffffffffffffffffffffffffffffffffffffff1661072e6112b2565b73ffffffffffffffffffffffffffffffffffffffff16148061075d575061075c816107576112b2565b611019565b5b61079c576040517f08c379a000000000000000000000000000000000000000000000000000000000815260040161079390612a54565b60405180910390fd5b6107a683836112ba565b505050565b6107bc6107b66112b2565b82611373565b6107fb576040517f08c379a00000000000000000000000000000000000000000000000000000000081526004016107f290612ae6565b60405180910390fd5b610806838383611451565b505050565b662386f26fc100003414610854576040517f08c379a000000000000000000000000000000000000000000000000000000000815260040161084b90612b52565b60405180910390fd5b610860848484846116ad565b610868610b63565b73ffffffffffffffffffffffffffffffffffffffff166108fc662386f26fc100009081150290604051600060405180830381858888f193505050501580156108b4573d6000803e3d6000fd5b5050505050565b6108d683838360405180602001604052806000815250610f10565b505050565b6108e36112b2565b73ffffffffffffffffffffffffffffffffffffffff16610901610b63565b73ffffffffffffffffffffffffffffffffffffffff1614610957576040517f08c379a000000000000000000000000000000000000000000000000000000000815260040161094e90612bbe565b60405180910390fd5b806009908051906020019061096d929190611fd5565b5050565b6000806003600084815260200190815260200160002060009054906101000a900473ffffffffffffffffffffffffffffffffffffffff169050600073ffffffffffffffffffffffffffffffffffffffff168173ffffffffffffffffffffffffffffffffffffffff161415610a1a576040517f08c379a0000000000000000000000000000000000000000000000000000000008152600401610a1190612c50565b60405180910390fd5b80915050919050565b60008073ffffffffffffffffffffffffffffffffffffffff168273ffffffffffffffffffffffffffffffffffffffff161415610a94576040517f08c379a0000000000000000000000000000000000000000000000000000000008152600401610a8b90612ce2565b60405180910390fd5b600460008373ffffffffffffffffffffffffffffffffffffffff1673ffffffffffffffffffffffffffffffffffffffff168152602001908152602001600020549050919050565b610ae36112b2565b73ffffffffffffffffffffffffffffffffffffffff16610b01610b63565b73ffffffffffffffffffffffffffffffffffffffff1614610b57576040517f08c379a0000000000000000000000000000000000000000000000000000000008152600401610b4e90612bbe565b60405180910390fd5b610b616000611781565b565b60008060009054906101000a900473ffffffffffffffffffffffffffffffffffffffff16905090565b606080606080610b9b85611246565b610bda576040517f08c379a0000000000000000000000000000000000000000000000000000000008152600401610bd190612d4e565b60405180910390fd5b600060086000878152602001908152602001600020604051806080016040529081600082018054610c0a9061288c565b80601f0160208091040260200160405190810160405280929190818152602001828054610c369061288c565b8015610c835780601f10610c5857610100808354040283529160200191610c83565b820191906000526020600020905b815481529060010190602001808311610c6657829003601f168201915b50505050508152602001600182018054610c9c9061288c565b80601f0160208091040260200160405190810160405280929190818152602001828054610cc89061288c565b8015610d155780601f10610cea57610100808354040283529160200191610d15565b820191906000526020600020905b815481529060010190602001808311610cf857829003601f168201915b50505050508152602001600282018054610d2e9061288c565b80601f0160208091040260200160405190810160405280929190818152602001828054610d5a9061288c565b8015610da75780601f10610d7c57610100808354040283529160200191610da7565b820191906000526020600020905b815481529060010190602001808311610d8a57829003601f168201915b50505050508152602001600382018054610dc09061288c565b80601f0160208091040260200160405190810160405280929190818152602001828054610dec9061288c565b8015610e395780601f10610e0e57610100808354040283529160200191610e39565b820191906000526020600020905b815481529060010190602001808311610e1c57829003601f168201915b505050505081525050905080600001519450806020015193508060400151925080606001519150509193509193565b606060028054610e779061288c565b80601f0160208091040260200160405190810160405280929190818152602001828054610ea39061288c565b8015610ef05780601f10610ec557610100808354040283529160200191610ef0565b820191906000526020600020905b815481529060010190602001808311610ed357829003601f168201915b5050505050905090565b610f0c610f056112b2565b8383611845565b5050565b610f21610f1b6112b2565b83611373565b610f60576040517f08c379a0000000000000000000000000000000000000000000000000000000008152600401610f5790612ae6565b60405180910390fd5b610f6c848484846119b2565b50505050565b6060610f7d82611246565b610fbc576040517f08c379a0000000000000000000000000000000000000000000000000000000008152600401610fb390612de0565b60405180910390fd5b6000610fc6611a0e565b90506000815111610fe65760405180602001604052806000815250611011565b80610ff084611aa0565b604051602001611001929190612e3c565b6040516020818303038152906040525b915050919050565b6000600660008473ffffffffffffffffffffffffffffffffffffffff1673ffffffffffffffffffffffffffffffffffffffff16815260200190815260200160002060008373ffffffffffffffffffffffffffffffffffffffff1673ffffffffffffffffffffffffffffffffffffffff16815260200190815260200160002060009054906101000a900460ff16905092915050565b6110b56112b2565b73ffffffffffffffffffffffffffffffffffffffff166110d3610b63565b73ffffffffffffffffffffffffffffffffffffffff1614611129576040517f08c379a000000000000000000000000000000000000000000000000000000000815260040161112090612bbe565b60405180910390fd5b600073ffffffffffffffffffffffffffffffffffffffff168173ffffffffffffffffffffffffffffffffffffffff161415611199576040517f08c379a000000000000000000000000000000000000000000000000000000000815260040161119090612ed2565b60405180910390fd5b6111a281611781565b50565b6001816000016000828254019250508190555050565b600081600001549050919050565b600080823b905060008111915050919050565b60007f01ffc9a7000000000000000000000000000000000000000000000000000000007bffffffffffffffffffffffffffffffffffffffffffffffffffffffff1916827bffffffffffffffffffffffffffffffffffffffffffffffffffffffff1916149050919050565b60008073ffffffffffffffffffffffffffffffffffffffff166003600084815260200190815260200160002060009054906101000a900473ffffffffffffffffffffffffffffffffffffffff1673ffffffffffffffffffffffffffffffffffffffff1614159050919050565b600033905090565b816005600083815260200190815260200160002060006101000a81548173ffffffffffffffffffffffffffffffffffffffff021916908373ffffffffffffffffffffffffffffffffffffffff160217905550808273ffffffffffffffffffffffffffffffffffffffff1661132d83610971565b73ffffffffffffffffffffffffffffffffffffffff167f8c5be1e5ebec7d5bd14f71427d1e84f3dd0314c0f7b2291e5b200ac8c7c3b92560405160405180910390a45050565b600061137e82611246565b6113bd576040517f08c379a00000000000000000000000000000000000000000000000000000000081526004016113b490612f64565b60405180910390fd5b60006113c883610971565b90508073ffffffffffffffffffffffffffffffffffffffff168473ffffffffffffffffffffffffffffffffffffffff16148061143757508373ffffffffffffffffffffffffffffffffffffffff1661141f8461060e565b73ffffffffffffffffffffffffffffffffffffffff16145b8061144857506114478185611019565b5b91505092915050565b8273ffffffffffffffffffffffffffffffffffffffff1661147182610971565b73ffffffffffffffffffffffffffffffffffffffff16146114c7576040517f08c379a00000000000000000000000000000000000000000000000000000000081526004016114be90612ff6565b60405180910390fd5b600073ffffffffffffffffffffffffffffffffffffffff168273ffffffffffffffffffffffffffffffffffffffff161415611537576040517f08c379a000000000000000000000000000000000000000000000000000000000815260040161152e90613088565b60405180910390fd5b611542838383611c01565b61154d6000826112ba565b6001600460008573ffffffffffffffffffffffffffffffffffffffff1673ffffffffffffffffffffffffffffffffffffffff168152602001908152602001600020600082825461159d91906130d7565b925050819055506001600460008473ffffffffffffffffffffffffffffffffffffffff1673ffffffffffffffffffffffffffffffffffffffff16815260200190815260200160002060008282546115f4919061310b565b92505081905550816003600083815260200190815260200160002060006101000a81548173ffffffffffffffffffffffffffffffffffffffff021916908373ffffffffffffffffffffffffffffffffffffffff160217905550808273ffffffffffffffffffffffffffffffffffffffff168473ffffffffffffffffffffffffffffffffffffffff167fddf252ad1be2c89b69c2b068fc378daa952ba7f163c4a11628f55a4df523b3ef60405160405180910390a4505050565b6116b760076111a5565b60006116c360076111bb565b9050604051806080016040528086815260200185815260200184815260200183815250600860008381526020019081526020016000206000820151816000019080519060200190611715929190611fd5565b506020820151816001019080519060200190611732929190611fd5565b50604082015181600201908051906020019061174f929190611fd5565b50606082015181600301908051906020019061176c929190611fd5565b5090505061177a3382611c06565b5050505050565b60008060009054906101000a900473ffffffffffffffffffffffffffffffffffffffff169050816000806101000a81548173ffffffffffffffffffffffffffffffffffffffff021916908373ffffffffffffffffffffffffffffffffffffffff1602179055508173ffffffffffffffffffffffffffffffffffffffff168173ffffffffffffffffffffffffffffffffffffffff167f8be0079c531659141344cd1fd0a4f28419497f9722a3daafe3b4186f6b6457e060405160405180910390a35050565b8173ffffffffffffffffffffffffffffffffffffffff168373ffffffffffffffffffffffffffffffffffffffff1614156118b4576040517f08c379a00000000000000000000000000000000000000000000000000000000081526004016118ab906131ad565b60405180910390fd5b80600660008573ffffffffffffffffffffffffffffffffffffffff1673ffffffffffffffffffffffffffffffffffffffff16815260200190815260200160002060008473ffffffffffffffffffffffffffffffffffffffff1673ffffffffffffffffffffffffffffffffffffffff16815260200190815260200160002060006101000a81548160ff0219169083151502179055508173ffffffffffffffffffffffffffffffffffffffff168373ffffffffffffffffffffffffffffffffffffffff167f17307eab39ab6107e8899845ad3d59bd9653f200f220920489ca2b5937696c31836040516119a5919061212c565b60405180910390a3505050565b6119bd848484611451565b6119c984848484611c24565b611a08576040517f08c379a00000000000000000000000000000000000000000000000000000000081526004016119ff9061323f565b60405180910390fd5b50505050565b606060098054611a1d9061288c565b80601f0160208091040260200160405190810160405280929190818152602001828054611a499061288c565b8015611a965780601f10611a6b57610100808354040283529160200191611a96565b820191906000526020600020905b815481529060010190602001808311611a7957829003601f168201915b5050505050905090565b60606000821415611ae8576040518060400160405280600181526020017f30000000000000000000000000000000000000000000000000000000000000008152509050611bfc565b600082905060005b60008214611b1a578080611b039061325f565b915050600a82611b1391906132d7565b9150611af0565b60008167ffffffffffffffff811115611b3657611b3561238a565b5b6040519080825280601f01601f191660200182016040528015611b685781602001600182028036833780820191505090505b5090505b60008514611bf557600182611b8191906130d7565b9150600a85611b909190613308565b6030611b9c919061310b565b60f81b818381518110611bb257611bb1613339565b5b60200101907effffffffffffffffffffffffffffffffffffffffffffffffffffffffffffff1916908160001a905350600a85611bee91906132d7565b9450611b6c565b8093505050505b919050565b505050565b611c20828260405180602001604052806000815250611dac565b5050565b6000611c458473ffffffffffffffffffffffffffffffffffffffff166111c9565b15611d9f578373ffffffffffffffffffffffffffffffffffffffff1663150b7a02611c6e6112b2565b8786866040518563ffffffff1660e01b8152600401611c9094939291906133bd565b6020604051808303816000875af1925050508015611ccc57506040513d601f19601f82011682018060405250810190611cc9919061341e565b60015b611d4f573d8060008114611cfc576040519150601f19603f3d011682016040523d82523d6000602084013e611d01565b606091505b50600081511415611d47576040517f08c379a0000000000000000000000000000000000000000000000000000000008152600401611d3e9061323f565b60405180910390fd5b805181602001fd5b63150b7a0260e01b7bffffffffffffffffffffffffffffffffffffffffffffffffffffffff1916817bffffffffffffffffffffffffffffffffffffffffffffffffffffffff191614915050611da4565b600190505b949350505050565b611db68383611e07565b611dc36000848484611c24565b611e02576040517f08c379a0000000000000000000000000000000000000000000000000000000008152600401611df99061323f565b60405180910390fd5b505050565b600073ffffffffffffffffffffffffffffffffffffffff168273ffffffffffffffffffffffffffffffffffffffff161415611e77576040517f08c379a0000000000000000000000000000000000000000000000000000000008152600401611e6e90613497565b60405180910390fd5b611e8081611246565b15611ec0576040517f08c379a0000000000000000000000000000000000000000000000000000000008152600401611eb790613503565b60405180910390fd5b611ecc60008383611c01565b6001600460008473ffffffffffffffffffffffffffffffffffffffff1673ffffffffffffffffffffffffffffffffffffffff1681526020019081526020016000206000828254611f1c919061310b565b92505081905550816003600083815260200190815260200160002060006101000a81548173ffffffffffffffffffffffffffffffffffffffff021916908373ffffffffffffffffffffffffffffffffffffffff160217905550808273ffffffffffffffffffffffffffffffffffffffff16600073ffffffffffffffffffffffffffffffffffffffff167fddf252ad1be2c89b69c2b068fc378daa952ba7f163c4a11628f55a4df523b3ef60405160405180910390a45050565b828054611fe19061288c565b90600052602060002090601f016020900481019282612003576000855561204a565b82601f1061201c57805160ff191683800117855561204a565b8280016001018555821561204a579182015b8281111561204957825182559160200191906001019061202e565b5b509050612057919061205b565b5090565b5b8082111561207457600081600090555060010161205c565b5090565b6000604051905090565b600080fd5b600080fd5b60007fffffffff0000000000000000000000000000000000000000000000000000000082169050919050565b6120c18161208c565b81146120cc57600080fd5b50565b6000813590506120de816120b8565b92915050565b6000602082840312156120fa576120f9612082565b5b6000612108848285016120cf565b91505092915050565b60008115159050919050565b61212681612111565b82525050565b6000602082019050612141600083018461211d565b92915050565b600081519050919050565b600082825260208201905092915050565b60005b83811015612181578082015181840152602081019050612166565b83811115612190576000848401525b50505050565b6000601f19601f8301169050919050565b60006121b282612147565b6121bc8185612152565b93506121cc818560208601612163565b6121d581612196565b840191505092915050565b600060208201905081810360008301526121fa81846121a7565b905092915050565b6000819050919050565b61221581612202565b811461222057600080fd5b50565b6000813590506122328161220c565b92915050565b60006020828403121561224e5761224d612082565b5b600061225c84828501612223565b91505092915050565b600073ffffffffffffffffffffffffffffffffffffffff82169050919050565b600061229082612265565b9050919050565b6122a081612285565b82525050565b60006020820190506122bb6000830184612297565b92915050565b6122ca81612285565b81146122d557600080fd5b50565b6000813590506122e7816122c1565b92915050565b6000806040838503121561230457612303612082565b5b6000612312858286016122d8565b925050602061232385828601612223565b9150509250929050565b60008060006060848603121561234657612345612082565b5b6000612354868287016122d8565b9350506020612365868287016122d8565b925050604061237686828701612223565b9150509250925092565b600080fd5b600080fd5b7f4e487b7100000000000000000000000000000000000000000000000000000000600052604160045260246000fd5b6123c282612196565b810181811067ffffffffffffffff821117156123e1576123e061238a565b5b80604052505050565b60006123f4612078565b905061240082826123b9565b919050565b600067ffffffffffffffff8211156124205761241f61238a565b5b61242982612196565b9050602081019050919050565b82818337600083830152505050565b600061245861245384612405565b6123ea565b90508281526020810184848401111561247457612473612385565b5b61247f848285612436565b509392505050565b600082601f83011261249c5761249b612380565b5b81356124ac848260208601612445565b91505092915050565b600080600080608085870312156124cf576124ce612082565b5b600085013567ffffffffffffffff8111156124ed576124ec612087565b5b6124f987828801612487565b945050602085013567ffffffffffffffff81111561251a57612519612087565b5b61252687828801612487565b935050604085013567ffffffffffffffff81111561254757612546612087565b5b61255387828801612487565b925050606085013567ffffffffffffffff81111561257457612573612087565b5b61258087828801612487565b91505092959194509250565b6000602082840312156125a2576125a1612082565b5b600082013567ffffffffffffffff8111156125c0576125bf612087565b5b6125cc84828501612487565b91505092915050565b6000602082840312156125eb576125ea612082565b5b60006125f9848285016122d8565b91505092915050565b61260b81612202565b82525050565b60006020820190506126266000830184612602565b92915050565b6000608082019050818103600083015261264681876121a7565b9050818103602083015261265a81866121a7565b9050818103604083015261266e81856121a7565b9050818103606083015261268281846121a7565b905095945050505050565b61269681612111565b81146126a157600080fd5b50565b6000813590506126b38161268d565b92915050565b600080604083850312156126d0576126cf612082565b5b60006126de858286016122d8565b92505060206126ef858286016126a4565b9150509250929050565b600067ffffffffffffffff8211156127145761271361238a565b5b61271d82612196565b9050602081019050919050565b600061273d612738846126f9565b6123ea565b90508281526020810184848401111561275957612758612385565b5b612764848285612436565b509392505050565b600082601f83011261278157612780612380565b5b813561279184826020860161272a565b91505092915050565b600080600080608085870312156127b4576127b3612082565b5b60006127c2878288016122d8565b94505060206127d3878288016122d8565b93505060406127e487828801612223565b925050606085013567ffffffffffffffff81111561280557612804612087565b5b6128118782880161276c565b91505092959194509250565b6000806040838503121561283457612833612082565b5b6000612842858286016122d8565b9250506020612853858286016122d8565b9150509250929050565b7f4e487b7100000000000000000000000000000000000000000000000000000000600052602260045260246000fd5b600060028204905060018216806128a457607f821691505b602082108114156128b8576128b761285d565b5b50919050565b7f4552433732313a20617070726f76656420717565727920666f72206e6f6e657860008201527f697374656e7420746f6b656e0000000000000000000000000000000000000000602082015250565b600061291a602c83612152565b9150612925826128be565b604082019050919050565b600060208201905081810360008301526129498161290d565b9050919050565b7f4552433732313a20617070726f76616c20746f2063757272656e74206f776e6560008201527f7200000000000000000000000000000000000000000000000000000000000000602082015250565b60006129ac602183612152565b91506129b782612950565b604082019050919050565b600060208201905081810360008301526129db8161299f565b9050919050565b7f4552433732313a20617070726f76652063616c6c6572206973206e6f74206f7760008201527f6e6572206e6f7220617070726f76656420666f7220616c6c0000000000000000602082015250565b6000612a3e603883612152565b9150612a49826129e2565b604082019050919050565b60006020820190508181036000830152612a6d81612a31565b9050919050565b7f4552433732313a207472616e736665722063616c6c6572206973206e6f74206f60008201527f776e6572206e6f7220617070726f766564000000000000000000000000000000602082015250565b6000612ad0603183612152565b9150612adb82612a74565b604082019050919050565b60006020820190508181036000830152612aff81612ac3565b9050919050565b7f636c61696d696e672061206461746120636f7374732031302066696e6e657900600082015250565b6000612b3c601f83612152565b9150612b4782612b06565b602082019050919050565b60006020820190508181036000830152612b6b81612b2f565b9050919050565b7f4f776e61626c653a2063616c6c6572206973206e6f7420746865206f776e6572600082015250565b6000612ba8602083612152565b9150612bb382612b72565b602082019050919050565b60006020820190508181036000830152612bd781612b9b565b9050919050565b7f4552433732313a206f776e657220717565727920666f72206e6f6e657869737460008201527f656e7420746f6b656e0000000000000000000000000000000000000000000000602082015250565b6000612c3a602983612152565b9150612c4582612bde565b604082019050919050565b60006020820190508181036000830152612c6981612c2d565b9050919050565b7f4552433732313a2062616c616e636520717565727920666f7220746865207a6560008201527f726f206164647265737300000000000000000000000000000000000000000000602082015250565b6000612ccc602a83612152565b9150612cd782612c70565b604082019050919050565b60006020820190508181036000830152612cfb81612cbf565b9050919050565b7f746f6b656e206e6f74206d696e74656400000000000000000000000000000000600082015250565b6000612d38601083612152565b9150612d4382612d02565b602082019050919050565b60006020820190508181036000830152612d6781612d2b565b9050919050565b7f4552433732314d657461646174613a2055524920717565727920666f72206e6f60008201527f6e6578697374656e7420746f6b656e0000000000000000000000000000000000602082015250565b6000612dca602f83612152565b9150612dd582612d6e565b604082019050919050565b60006020820190508181036000830152612df981612dbd565b9050919050565b600081905092915050565b6000612e1682612147565b612e208185612e00565b9350612e30818560208601612163565b80840191505092915050565b6000612e488285612e0b565b9150612e548284612e0b565b91508190509392505050565b7f4f776e61626c653a206e6577206f776e657220697320746865207a65726f206160008201527f6464726573730000000000000000000000000000000000000000000000000000602082015250565b6000612ebc602683612152565b9150612ec782612e60565b604082019050919050565b60006020820190508181036000830152612eeb81612eaf565b9050919050565b7f4552433732313a206f70657261746f7220717565727920666f72206e6f6e657860008201527f697374656e7420746f6b656e0000000000000000000000000000000000000000602082015250565b6000612f4e602c83612152565b9150612f5982612ef2565b604082019050919050565b60006020820190508181036000830152612f7d81612f41565b9050919050565b7f4552433732313a207472616e73666572206f6620746f6b656e2074686174206960008201527f73206e6f74206f776e0000000000000000000000000000000000000000000000602082015250565b6000612fe0602983612152565b9150612feb82612f84565b604082019050919050565b6000602082019050818103600083015261300f81612fd3565b9050919050565b7f4552433732313a207472616e7366657220746f20746865207a65726f2061646460008201527f7265737300000000000000000000000000000000000000000000000000000000602082015250565b6000613072602483612152565b915061307d82613016565b604082019050919050565b600060208201905081810360008301526130a181613065565b9050919050565b7f4e487b7100000000000000000000000000000000000000000000000000000000600052601160045260246000fd5b60006130e282612202565b91506130ed83612202565b925082821015613100576130ff6130a8565b5b828203905092915050565b600061311682612202565b915061312183612202565b9250827fffffffffffffffffffffffffffffffffffffffffffffffffffffffffffffffff03821115613156576131556130a8565b5b828201905092915050565b7f4552433732313a20617070726f766520746f2063616c6c657200000000000000600082015250565b6000613197601983612152565b91506131a282613161565b602082019050919050565b600060208201905081810360008301526131c68161318a565b9050919050565b7f4552433732313a207472616e7366657220746f206e6f6e20455243373231526560008201527f63656976657220696d706c656d656e7465720000000000000000000000000000602082015250565b6000613229603283612152565b9150613234826131cd565b604082019050919050565b600060208201905081810360008301526132588161321c565b9050919050565b600061326a82612202565b91507fffffffffffffffffffffffffffffffffffffffffffffffffffffffffffffffff82141561329d5761329c6130a8565b5b600182019050919050565b7f4e487b7100000000000000000000000000000000000000000000000000000000600052601260045260246000fd5b60006132e282612202565b91506132ed83612202565b9250826132fd576132fc6132a8565b5b828204905092915050565b600061331382612202565b915061331e83612202565b92508261332e5761332d6132a8565b5b828206905092915050565b7f4e487b7100000000000000000000000000000000000000000000000000000000600052603260045260246000fd5b600081519050919050565b600082825260208201905092915050565b600061338f82613368565b6133998185613373565b93506133a9818560208601612163565b6133b281612196565b840191505092915050565b60006080820190506133d26000830187612297565b6133df6020830186612297565b6133ec6040830185612602565b81810360608301526133fe8184613384565b905095945050505050565b600081519050613418816120b8565b92915050565b60006020828403121561343457613433612082565b5b600061344284828501613409565b91505092915050565b7f4552433732313a206d696e7420746f20746865207a65726f2061646472657373600082015250565b6000613481602083612152565b915061348c8261344b565b602082019050919050565b600060208201905081810360008301526134b081613474565b9050919050565b7f4552433732313a20746f6b656e20616c7265616479206d696e74656400000000600082015250565b60006134ed601c83612152565b91506134f8826134b7565b602082019050919050565b6000602082019050818103600083015261351c816134e0565b905091905056fea264697066735822122085824f83a802c093a75941395e6b698a1e3f7e60b645c64697943b0509fa5e0764736f6c634300080a003368747470733a2f2f736f756e64636c6f75642e636f6d2f796f7572706172616469732f736574732f6974732d7261696e792d6461793f75746d5f736f757263653d636c6970626f6172642675746d5f6d656469756d3d746578742675746d5f63616d706169676e3d736f6369616c5f73686172696e67",
  "immutableReferences": {},
  "source": "pragma solidity >=0.4.22 <0.9.0;\r\n\r\nimport \"@openzeppelin/contracts/access/Ownable.sol\";\r\nimport \"@openzeppelin/contracts/token/ERC721/ERC721.sol\";\r\nimport \"@openzeppelin/contracts/utils/Counters.sol\";\r\n\r\ncontract Audio is Ownable, ERC721 {\r\n  using Counters for Counters.Counter;\r\n  Counters.Counter private _tokenIds;\r\n\r\n  struct Metadata {\r\n    string title;\r\n    string composer;\r\n    string genre;\r\n    string url;\r\n  }\r\n\r\n  mapping(uint256 => Metadata) id_to_audio;\r\n\r\n  string private _currentBaseURI;\r\n\r\n  constructor() ERC721(\"Audio\", \"AUDIO\") {\r\n    setBaseURI(\"http://localhost/token/\");\r\n\r\n    mint(\"Test file\", \"Abhigya\", \"test\", \"https://soundcloud.com/yourparadis/sets/its-rainy-day?utm_source=clipboard&utm_medium=text&utm_campaign=social_sharing\");\r\n\r\n  }\r\n  function setBaseURI(string memory baseURI) public onlyOwner {\r\n      _currentBaseURI = baseURI;\r\n  }\r\n\r\n  function _baseURI() internal view virtual override returns (string memory) {\r\n      return _currentBaseURI;\r\n  }\r\n\r\n  function mint(string memory title, string memory composer, string memory genre, string memory url) internal {\r\n    _tokenIds.increment();\r\n    uint256 tokenId = _tokenIds.current();\r\n\r\n    id_to_audio[tokenId] = Metadata(title, composer, genre, url);\r\n    _safeMint(msg.sender, tokenId);\r\n  }\r\n\r\n  function claim(string memory title, string memory composer, string memory genre, string memory url) external payable {\r\n    require(msg.value == 0.01 ether, \"claiming a data costs 10 finney\");\r\n\r\n    mint(title, composer, genre, url);\r\n    payable(owner()).transfer(0.01 ether);\r\n  }\r\n\r\n  function get(uint256 tokenId) external view returns (string memory title, string memory composer, string memory genre, string memory url) {\r\n    require (_exists(tokenId), \"token not minted\");\r\n    Metadata memory track = id_to_audio[tokenId];\r\n    title = track.title;\r\n    composer = track.composer;\r\n    genre = track.genre;\r\n    url = track.url;\r\n  }\r\n}\r\n",
  "sourcePath": "C:\\Users\\shrid\\OneDrive\\Documents\\blockchain\\HackNYU\\contracts\\Audio.sol",
  "compiler": {
    "name": "solc",
    "version": "0.8.10+commit.fc410830.Emscripten.clang"
  },
  "schemaVersion": "3.4.3",
  "updatedAt": "2022-02-26T11:08:09.788Z",
  "networkType": "ethereum",
  "devdoc": {
    "kind": "dev",
    "methods": {
      "approve(address,uint256)": {
        "details": "See {IERC721-approve}."
      },
      "balanceOf(address)": {
        "details": "See {IERC721-balanceOf}."
      },
      "getApproved(uint256)": {
        "details": "See {IERC721-getApproved}."
      },
      "isApprovedForAll(address,address)": {
        "details": "See {IERC721-isApprovedForAll}."
      },
      "name()": {
        "details": "See {IERC721Metadata-name}."
      },
      "owner()": {
        "details": "Returns the address of the current owner."
      },
      "ownerOf(uint256)": {
        "details": "See {IERC721-ownerOf}."
      },
      "renounceOwnership()": {
        "details": "Leaves the contract without owner. It will not be possible to call `onlyOwner` functions anymore. Can only be called by the current owner. NOTE: Renouncing ownership will leave the contract without an owner, thereby removing any functionality that is only available to the owner."
      },
      "safeTransferFrom(address,address,uint256)": {
        "details": "See {IERC721-safeTransferFrom}."
      },
      "safeTransferFrom(address,address,uint256,bytes)": {
        "details": "See {IERC721-safeTransferFrom}."
      },
      "setApprovalForAll(address,bool)": {
        "details": "See {IERC721-setApprovalForAll}."
      },
      "supportsInterface(bytes4)": {
        "details": "See {IERC165-supportsInterface}."
      },
      "symbol()": {
        "details": "See {IERC721Metadata-symbol}."
      },
      "tokenURI(uint256)": {
        "details": "See {IERC721Metadata-tokenURI}."
      },
      "transferFrom(address,address,uint256)": {
        "details": "See {IERC721-transferFrom}."
      },
      "transferOwnership(address)": {
        "details": "Transfers ownership of the contract to a new account (`newOwner`). Can only be called by the current owner."
      }
    },
    "version": 1
  },
  "userdoc": {
    "kind": "user",
    "methods": {},
    "version": 1
  }
}